{
  "contractName": "Etherclear",
  "abi": [
    {
      "constant": true,
      "inputs": [
        {
          "name": "",
          "type": "address"
        },
        {
          "name": "",
          "type": "address"
        }
      ],
      "name": "tokens",
      "outputs": [
        {
          "name": "",
          "type": "uint256"
        }
      ],
      "payable": false,
      "stateMutability": "view",
      "type": "function"
    },
    {
      "inputs": [
        {
          "name": "_chainId",
          "type": "uint256"
        }
      ],
      "payable": false,
      "stateMutability": "nonpayable",
      "type": "constructor"
    },
    {
      "anonymous": false,
      "inputs": [
        {
          "indexed": false,
          "name": "txnId",
          "type": "uint256"
        },
        {
          "indexed": false,
          "name": "holdTime",
          "type": "uint256"
        },
        {
          "indexed": false,
          "name": "openTime",
          "type": "uint256"
        },
        {
          "indexed": false,
          "name": "closeTime",
          "type": "uint256"
        },
        {
          "indexed": false,
          "name": "token",
          "type": "address"
        },
        {
          "indexed": false,
          "name": "sendAmount",
          "type": "uint256"
        },
        {
          "indexed": true,
          "name": "sender",
          "type": "address"
        },
        {
          "indexed": true,
          "name": "recipient",
          "type": "address"
        },
        {
          "indexed": false,
          "name": "codeHash",
          "type": "bytes"
        }
      ],
      "name": "PaymentOpened",
      "type": "event"
    },
    {
      "anonymous": false,
      "inputs": [
        {
          "indexed": false,
          "name": "txnId",
          "type": "uint256"
        },
        {
          "indexed": false,
          "name": "holdTime",
          "type": "uint256"
        },
        {
          "indexed": false,
          "name": "openTime",
          "type": "uint256"
        },
        {
          "indexed": false,
          "name": "closeTime",
          "type": "uint256"
        },
        {
          "indexed": false,
          "name": "token",
          "type": "address"
        },
        {
          "indexed": false,
          "name": "sendAmount",
          "type": "uint256"
        },
        {
          "indexed": true,
          "name": "sender",
          "type": "address"
        },
        {
          "indexed": true,
          "name": "recipient",
          "type": "address"
        },
        {
          "indexed": false,
          "name": "codeHash",
          "type": "bytes"
        },
        {
          "indexed": false,
          "name": "state",
          "type": "uint256"
        }
      ],
      "name": "PaymentClosed",
      "type": "event"
    },
    {
      "constant": true,
      "inputs": [
        {
          "name": "txnId",
          "type": "uint256"
        },
        {
          "name": "sender",
          "type": "address"
        },
        {
          "name": "recipient",
          "type": "address"
        },
        {
          "name": "passphrase",
          "type": "string"
        },
        {
          "name": "sigR",
          "type": "bytes32"
        },
        {
          "name": "sigS",
          "type": "bytes32"
        },
        {
          "name": "sigV",
          "type": "uint8"
        }
      ],
      "name": "checkRetrieveSignature",
      "outputs": [
        {
          "name": "result",
          "type": "address"
        }
      ],
      "payable": false,
      "stateMutability": "view",
      "type": "function"
    },
    {
      "constant": true,
      "inputs": [],
      "name": "getChainId",
      "outputs": [
        {
          "name": "chainId",
          "type": "uint256"
        }
      ],
      "payable": false,
      "stateMutability": "pure",
      "type": "function"
    },
    {
      "constant": false,
      "inputs": [
        {
          "name": "reverseRegistrarAddr",
          "type": "address"
        },
        {
          "name": "name",
          "type": "string"
        }
      ],
      "name": "setENS",
      "outputs": [],
      "payable": false,
      "stateMutability": "nonpayable",
      "type": "function"
    },
    {
      "constant": false,
      "inputs": [
        {
          "name": "token",
          "type": "address"
        }
      ],
      "name": "withdrawFees",
      "outputs": [],
      "payable": false,
      "stateMutability": "nonpayable",
      "type": "function"
    },
    {
      "constant": true,
      "inputs": [
        {
          "name": "token",
          "type": "address"
        },
        {
          "name": "user",
          "type": "address"
        }
      ],
      "name": "viewBalance",
      "outputs": [
        {
          "name": "balance",
          "type": "uint256"
        }
      ],
      "payable": false,
      "stateMutability": "view",
      "type": "function"
    },
    {
      "constant": false,
      "inputs": [
        {
          "name": "newFee",
          "type": "uint256"
        }
      ],
      "name": "changeBaseFee",
      "outputs": [],
      "payable": false,
      "stateMutability": "nonpayable",
      "type": "function"
    },
    {
      "constant": false,
      "inputs": [
        {
          "name": "newFee",
          "type": "uint256"
        }
      ],
      "name": "changePaymentFee",
      "outputs": [],
      "payable": false,
      "stateMutability": "nonpayable",
      "type": "function"
    },
    {
      "constant": true,
      "inputs": [],
      "name": "getBaseFee",
      "outputs": [
        {
          "name": "feeAmt",
          "type": "uint256"
        }
      ],
      "payable": false,
      "stateMutability": "view",
      "type": "function"
    },
    {
      "constant": true,
      "inputs": [],
      "name": "getPaymentFee",
      "outputs": [
        {
          "name": "feeAmt",
          "type": "uint256"
        }
      ],
      "payable": false,
      "stateMutability": "view",
      "type": "function"
    },
    {
      "constant": true,
      "inputs": [],
      "name": "getPaymentsForSender",
      "outputs": [
        {
          "name": "result",
          "type": "uint256[]"
        }
      ],
      "payable": false,
      "stateMutability": "view",
      "type": "function"
    },
    {
      "constant": true,
      "inputs": [],
      "name": "getPaymentsForRecipient",
      "outputs": [
        {
          "name": "result",
          "type": "uint256[]"
        }
      ],
      "payable": false,
      "stateMutability": "view",
      "type": "function"
    },
    {
      "constant": true,
      "inputs": [
        {
          "name": "paymentID",
          "type": "uint256"
        }
      ],
      "name": "getPaymentInfo",
      "outputs": [
        {
          "name": "holdTime",
          "type": "uint256"
        },
        {
          "name": "paymentOpenTime",
          "type": "uint256"
        },
        {
          "name": "paymentCloseTime",
          "type": "uint256"
        },
        {
          "name": "token",
          "type": "address"
        },
        {
          "name": "sendAmount",
          "type": "uint256"
        },
        {
          "name": "sender",
          "type": "address"
        },
        {
          "name": "recipient",
          "type": "address"
        },
        {
          "name": "codeHash",
          "type": "bytes"
        },
        {
          "name": "state",
          "type": "uint256"
        }
      ],
      "payable": false,
      "stateMutability": "view",
      "type": "function"
    },
    {
      "constant": false,
      "inputs": [
        {
          "name": "txnId",
          "type": "uint256"
        }
      ],
      "name": "cancelPayment",
      "outputs": [],
      "payable": false,
      "stateMutability": "nonpayable",
      "type": "function"
    },
    {
      "constant": false,
      "inputs": [
        {
          "name": "amount",
          "type": "uint256"
        },
        {
          "name": "recipient",
          "type": "address"
        },
        {
          "name": "holdTime",
          "type": "uint256"
        },
        {
          "name": "codeHash",
          "type": "bytes"
        }
      ],
      "name": "createPayment",
      "outputs": [],
      "payable": true,
      "stateMutability": "payable",
      "type": "function"
    },
    {
      "constant": true,
      "inputs": [
        {
          "name": "token",
          "type": "address"
        }
      ],
      "name": "getBalance",
      "outputs": [
        {
          "name": "amt",
          "type": "uint256"
        }
      ],
      "payable": false,
      "stateMutability": "view",
      "type": "function"
    },
    {
      "constant": true,
      "inputs": [
        {
          "name": "recipient",
          "type": "address"
        },
        {
          "name": "codeHash",
          "type": "bytes"
        }
      ],
      "name": "getPaymentId",
      "outputs": [
        {
          "name": "result",
          "type": "uint256"
        }
      ],
      "payable": false,
      "stateMutability": "pure",
      "type": "function"
    },
    {
      "constant": false,
      "inputs": [
        {
          "name": "token",
          "type": "address"
        },
        {
          "name": "amount",
          "type": "uint256"
        },
        {
          "name": "recipient",
          "type": "address"
        },
        {
          "name": "holdTime",
          "type": "uint256"
        },
        {
          "name": "codeHash",
          "type": "bytes"
        }
      ],
      "name": "createTokenPayment",
      "outputs": [],
      "payable": true,
      "stateMutability": "payable",
      "type": "function"
    },
    {
      "constant": false,
      "inputs": [
        {
          "name": "txnId",
          "type": "uint256"
        },
        {
          "name": "sender",
          "type": "address"
        },
        {
          "name": "recipient",
          "type": "address"
        },
        {
          "name": "passphrase",
          "type": "string"
        },
        {
          "name": "sigR",
          "type": "bytes32"
        },
        {
          "name": "sigS",
          "type": "bytes32"
        },
        {
          "name": "sigV",
          "type": "uint8"
        }
      ],
      "name": "retrieveFundsForRecipient",
      "outputs": [],
      "payable": false,
      "stateMutability": "nonpayable",
      "type": "function"
    },
    {
      "constant": false,
      "inputs": [
        {
          "name": "txnId",
          "type": "uint256"
        },
        {
          "name": "code",
          "type": "string"
        }
      ],
      "name": "retrieveFundsAsRecipient",
      "outputs": [],
      "payable": false,
      "stateMutability": "nonpayable",
      "type": "function"
    },
    {
      "constant": true,
      "inputs": [
        {
          "name": "bs",
          "type": "bytes"
        }
      ],
      "name": "sliceUint",
      "outputs": [
        {
          "name": "",
          "type": "uint256"
        }
      ],
      "payable": false,
      "stateMutability": "pure",
      "type": "function"
    }
  ],
  "bytecode": "0x60806040523480156200001157600080fd5b506040516020806200578c83398101806040526200003391908101906200021f565b33600460006101000a81548173ffffffffffffffffffffffffffffffffffffffff021916908373ffffffffffffffffffffffffffffffffffffffff16021790555066038d7ea4c680006005819055506611c37937e0800060068190555080600981905550608060405190810160405280605f81526020016200572d605f91396040516020018082805190602001908083835b602083101515620000ec5780518252602082019150602081019050602083039250620000c5565b6001836020036101000a0380198251168184511680821785525050505050509050019150506040516020818303038152906040528051906020012060405180807f4574686572636c65617200000000000000000000000000000000000000000000815250600a019050604051809103902060405180807f310000000000000000000000000000000000000000000000000000000000000081525060010190506040518091039020600954731c56346cd2a2bf3202f771f50d3d14a367b480707ff2d857f4a3edcb9b78b4d503bfe733db1e3f6cdc2b7971ee739626c97e86a558600102604051602001620001e6969594939291906200027e565b60405160208183030381529060405280519060200120600881905550506200033d565b600062000217825162000333565b905092915050565b6000602082840312156200023257600080fd5b6000620002428482850162000209565b91505092915050565b6200025681620002eb565b82525050565b6200026781620002ff565b82525050565b620002788162000329565b82525050565b600060c0820190506200029560008301896200025c565b620002a460208301886200025c565b620002b360408301876200025c565b620002c260608301866200026d565b620002d160808301856200024b565b620002e060a08301846200025c565b979650505050505050565b6000620002f88262000309565b9050919050565b6000819050919050565b600073ffffffffffffffffffffffffffffffffffffffff82169050919050565b6000819050919050565b6000819050919050565b6153e0806200034d6000396000f3fe608060405260043610610147576000357c01000000000000000000000000000000000000000000000000000000009004806398703133116100c8578063d67240a01161008c578063d67240a014610412578063d810ff0f1461042e578063eff6be2f14610473578063f6d0726c1461049c578063f8b2cb4f146104c5578063fb8a6e881461050257610147565b8063987031331461031b5780639fe9bd3f14610358578063a535253314610383578063c4982480146103c0578063c900e570146103e957610147565b80634c8a78e81161010f5780634c8a78e814610224578063508493bc146102615780635204fc011461029e578063562a789c146102c75780638422927d146102f257610147565b80630e014cf81461014c57806315e812ad14610189578063164e68de146101b45780632c052515146101dd5780633408e470146101f9575b600080fd5b34801561015857600080fd5b50610173600480360361016e9190810190614230565b61052d565b6040516101809190614fbb565b60405180910390f35b34801561019557600080fd5b5061019e6105b4565b6040516101ab9190614fbb565b60405180910390f35b3480156101c057600080fd5b506101db60048036036101d69190810190614207565b6105be565b005b6101f760048036036101f29190810190614314565b61094b565b005b34801561020557600080fd5b5061020e611265565b60405161021b9190614fbb565b60405180910390f35b34801561023057600080fd5b5061024b600480360361024691908101906143f5565b61126d565b6040516102589190614fbb565b60405180910390f35b34801561026d57600080fd5b5061028860048036036102839190810190614230565b6112a0565b6040516102959190614fbb565b60405180910390f35b3480156102aa57600080fd5b506102c560048036036102c091908101906142c0565b6112c5565b005b3480156102d357600080fd5b506102dc611464565b6040516102e99190614d24565b60405180910390f35b3480156102fe57600080fd5b5061031960048036036103149190810190614436565b6114be565b005b34801561032757600080fd5b50610342600480360361033d91908101906144df565b611bc1565b60405161034f9190614c80565b60405180910390f35b34801561036457600080fd5b5061036d611caa565b60405161037a9190614d24565b60405180910390f35b34801561038f57600080fd5b506103aa60048036036103a5919081019061426c565b611d04565b6040516103b79190614fbb565b60405180910390f35b3480156103cc57600080fd5b506103e760048036036103e29190810190614436565b611df8565b005b3480156103f557600080fd5b50610410600480360361040b91908101906144df565b611e94565b005b61042c6004803603610427919081019061445f565b61227d565b005b34801561043a57600080fd5b5061045560048036036104509190810190614436565b6122d6565b60405161046a99989796959493929190614fd6565b60405180910390f35b34801561047f57600080fd5b5061049a60048036036104959190810190614436565b61256a565b005b3480156104a857600080fd5b506104c360048036036104be9190810190614595565b612606565b005b3480156104d157600080fd5b506104ec60048036036104e79190810190614207565b6128ad565b6040516104f99190614fbb565b60405180910390f35b34801561050e57600080fd5b50610517612933565b6040516105249190614fbb565b60405180910390f35b6000600760008473ffffffffffffffffffffffffffffffffffffffff1673ffffffffffffffffffffffffffffffffffffffff16815260200190815260200160002060008373ffffffffffffffffffffffffffffffffffffffff1673ffffffffffffffffffffffffffffffffffffffff16815260200190815260200160002054905092915050565b6000600554905090565b600460009054906101000a900473ffffffffffffffffffffffffffffffffffffffff1673ffffffffffffffffffffffffffffffffffffffff163373ffffffffffffffffffffffffffffffffffffffff16141515610650576040517f08c379a000000000000000000000000000000000000000000000000000000000815260040161064790614f3b565b60405180910390fd5b6000600760008373ffffffffffffffffffffffffffffffffffffffff1673ffffffffffffffffffffffffffffffffffffffff1681526020019081526020016000206000600460009054906101000a900473ffffffffffffffffffffffffffffffffffffffff1673ffffffffffffffffffffffffffffffffffffffff1673ffffffffffffffffffffffffffffffffffffffff1681526020019081526020016000205490506000600760008473ffffffffffffffffffffffffffffffffffffffff1673ffffffffffffffffffffffffffffffffffffffff1681526020019081526020016000206000600460009054906101000a900473ffffffffffffffffffffffffffffffffffffffff1673ffffffffffffffffffffffffffffffffffffffff1673ffffffffffffffffffffffffffffffffffffffff16815260200190815260200160002081905550600073ffffffffffffffffffffffffffffffffffffffff168273ffffffffffffffffffffffffffffffffffffffff16141561083a57600460009054906101000a900473ffffffffffffffffffffffffffffffffffffffff1673ffffffffffffffffffffffffffffffffffffffff166108fc829081150290604051600060405180830381858888f19350505050158015610834573d6000803e3d6000fd5b50610947565b8173ffffffffffffffffffffffffffffffffffffffff1663a9059cbb600460009054906101000a900473ffffffffffffffffffffffffffffffffffffffff16836040518363ffffffff167c01000000000000000000000000000000000000000000000000000000000281526004016108b3929190614c9b565b602060405180830381600087803b1580156108cd57600080fd5b505af11580156108e1573d6000803e3d6000fd5b505050506040513d601f19601f8201168201806040525061090591908101906143a3565b1515610946576040517f08c379a000000000000000000000000000000000000000000000000000000000815260040161093d90614f7b565b60405180910390fd5b5b5050565b6000670de0b6b3a76400006109626006548761293d565b81151561096b57fe5b049050600073ffffffffffffffffffffffffffffffffffffffff168673ffffffffffffffffffffffffffffffffffffffff161415610a01576109b86109b2866005546129b1565b826129b1565b34101515156109fc576040517f08c379a00000000000000000000000000000000000000000000000000000000081526004016109f390614f9b565b60405180910390fd5b610a49565b6005543410151515610a48576040517f08c379a0000000000000000000000000000000000000000000000000000000008152600401610a3f90614dbb565b60405180910390fd5b5b6000600260003373ffffffffffffffffffffffffffffffffffffffff1673ffffffffffffffffffffffffffffffffffffffff16815260200190815260200160002090506000600160008773ffffffffffffffffffffffffffffffffffffffff1673ffffffffffffffffffffffffffffffffffffffff16815260200190815260200160002090506000610adb8786611d04565b9050600073ffffffffffffffffffffffffffffffffffffffff166003600083815260200190815260200160002060050160009054906101000a900473ffffffffffffffffffffffffffffffffffffffff1673ffffffffffffffffffffffffffffffffffffffff16141515610b84576040517f08c379a0000000000000000000000000000000000000000000000000000000008152600401610b7b90614e3b565b60405180910390fd5b60606040805190810160405280600181526020017f20000000000000000000000000000000000000000000000000000000000000008152509050610bd3828286612a089092919063ffffffff16565b610be8828285612a089092919063ffffffff16565b610bf0613e27565b61012060405190810160405280898152602001428152602001600081526020018c73ffffffffffffffffffffffffffffffffffffffff1681526020018b81526020013373ffffffffffffffffffffffffffffffffffffffff1681526020018a73ffffffffffffffffffffffffffffffffffffffff16815260200188815260200160006002811115610c7d57fe5b8152509050806003600085815260200190815260200160002060008201518160000155602082015181600101556040820151816002015560608201518160030160006101000a81548173ffffffffffffffffffffffffffffffffffffffff021916908373ffffffffffffffffffffffffffffffffffffffff1602179055506080820151816004015560a08201518160050160006101000a81548173ffffffffffffffffffffffffffffffffffffffff021916908373ffffffffffffffffffffffffffffffffffffffff16021790555060c08201518160060160006101000a81548173ffffffffffffffffffffffffffffffffffffffff021916908373ffffffffffffffffffffffffffffffffffffffff16021790555060e0820151816007019080519060200190610daf929190613ec1565b506101008201518160080160006101000a81548160ff02191690836002811115610dd557fe5b0217905550905050600073ffffffffffffffffffffffffffffffffffffffff168b73ffffffffffffffffffffffffffffffffffffffff16141561107057610e98600760008073ffffffffffffffffffffffffffffffffffffffff1673ffffffffffffffffffffffffffffffffffffffff16815260200190815260200160002060003373ffffffffffffffffffffffffffffffffffffffff1673ffffffffffffffffffffffffffffffffffffffff168152602001908152602001600020548b6129b1565b600760008073ffffffffffffffffffffffffffffffffffffffff1673ffffffffffffffffffffffffffffffffffffffff16815260200190815260200160002060003373ffffffffffffffffffffffffffffffffffffffff1673ffffffffffffffffffffffffffffffffffffffff16815260200190815260200160002081905550610fc9600760008073ffffffffffffffffffffffffffffffffffffffff1673ffffffffffffffffffffffffffffffffffffffff1681526020019081526020016000206000600460009054906101000a900473ffffffffffffffffffffffffffffffffffffffff1673ffffffffffffffffffffffffffffffffffffffff1673ffffffffffffffffffffffffffffffffffffffff16815260200190815260200160002054610fc4348d612a18565b6129b1565b600760008073ffffffffffffffffffffffffffffffffffffffff1673ffffffffffffffffffffffffffffffffffffffff1681526020019081526020016000206000600460009054906101000a900473ffffffffffffffffffffffffffffffffffffffff1673ffffffffffffffffffffffffffffffffffffffff1673ffffffffffffffffffffffffffffffffffffffff168152602001908152602001600020819055506111c7565b611118600760008073ffffffffffffffffffffffffffffffffffffffff1673ffffffffffffffffffffffffffffffffffffffff1681526020019081526020016000206000600460009054906101000a900473ffffffffffffffffffffffffffffffffffffffff1673ffffffffffffffffffffffffffffffffffffffff1673ffffffffffffffffffffffffffffffffffffffff16815260200190815260200160002054346129b1565b600760008073ffffffffffffffffffffffffffffffffffffffff1673ffffffffffffffffffffffffffffffffffffffff1681526020019081526020016000206000600460009054906101000a900473ffffffffffffffffffffffffffffffffffffffff1673ffffffffffffffffffffffffffffffffffffffff1673ffffffffffffffffffffffffffffffffffffffff168152602001908152602001600020819055506111c68b338c89612a70565b5b8060c0015173ffffffffffffffffffffffffffffffffffffffff168160a0015173ffffffffffffffffffffffffffffffffffffffff167f0334b06c8b30fde88055598b252c2c7465253f606f06cd13c11fcc5e147982e185846000015185602001518660400151876060015188608001518960e00151604051611250979695949392919061506a565b60405180910390a35050505050505050505050565b600080905090565b60008060009050602081018351101561128a57600091505061129b565b600081602001840151905080925050505b919050565b6007602052816000526040600020602052806000526040600020600091509150505481565b600460009054906101000a900473ffffffffffffffffffffffffffffffffffffffff1673ffffffffffffffffffffffffffffffffffffffff163373ffffffffffffffffffffffffffffffffffffffff16141515611357576040517f08c379a000000000000000000000000000000000000000000000000000000000815260040161134e90614f3b565b60405180910390fd5b816000806101000a81548173ffffffffffffffffffffffffffffffffffffffff021916908373ffffffffffffffffffffffffffffffffffffffff1602179055506000809054906101000a900473ffffffffffffffffffffffffffffffffffffffff1673ffffffffffffffffffffffffffffffffffffffff1663c47f0027826040518263ffffffff167c010000000000000000000000000000000000000000000000000000000002815260040161140d9190614d99565b602060405180830381600087803b15801561142757600080fd5b505af115801561143b573d6000803e3d6000fd5b505050506040513d601f19601f8201168201806040525061145f91908101906143cc565b505050565b60606000600160003373ffffffffffffffffffffffffffffffffffffffff1673ffffffffffffffffffffffffffffffffffffffff168152602001908152602001600020905060606114b482612dc1565b9050809250505090565b6114c6613e27565b6003600083815260200190815260200160002061012060405190810160405290816000820154815260200160018201548152602001600282015481526020016003820160009054906101000a900473ffffffffffffffffffffffffffffffffffffffff1673ffffffffffffffffffffffffffffffffffffffff1673ffffffffffffffffffffffffffffffffffffffff168152602001600482015481526020016005820160009054906101000a900473ffffffffffffffffffffffffffffffffffffffff1673ffffffffffffffffffffffffffffffffffffffff1673ffffffffffffffffffffffffffffffffffffffff1681526020016006820160009054906101000a900473ffffffffffffffffffffffffffffffffffffffff1673ffffffffffffffffffffffffffffffffffffffff1673ffffffffffffffffffffffffffffffffffffffff168152602001600782018054600181600116156101000203166002900480601f0160208091040260200160405190810160405280929190818152602001828054600181600116156101000203166002900480156116a95780601f1061167e576101008083540402835291602001916116a9565b820191906000526020600020905b81548152906001019060200180831161168c57829003601f168201915b505050505081526020016008820160009054906101000a900460ff1660028111156116d057fe5b60028111156116db57fe5b8152505090503373ffffffffffffffffffffffffffffffffffffffff168160a0015173ffffffffffffffffffffffffffffffffffffffff16141515611755576040517f08c379a000000000000000000000000000000000000000000000000000000000815260040161174c90614efb565b60405180910390fd5b6000600281111561176257fe5b816101000151600281111561177357fe5b1415156117b5576040517f08c379a00000000000000000000000000000000000000000000000000000000081526004016117ac90614f1b565b60405180910390fd5b42816040018181525050600281610100019060028111156117d257fe5b908160028111156117df57fe5b8152505060036000838152602001908152602001600020600080820160009055600182016000905560028201600090556003820160006101000a81549073ffffffffffffffffffffffffffffffffffffffff021916905560048201600090556005820160006101000a81549073ffffffffffffffffffffffffffffffffffffffff02191690556006820160006101000a81549073ffffffffffffffffffffffffffffffffffffffff021916905560078201600061189c9190613f41565b6008820160006101000a81549060ff0219169055505061190782600160008460c0015173ffffffffffffffffffffffffffffffffffffffff1673ffffffffffffffffffffffffffffffffffffffff168152602001908152602001600020612e5690919063ffffffff16565b5061195d82600260008460a0015173ffffffffffffffffffffffffffffffffffffffff1673ffffffffffffffffffffffffffffffffffffffff168152602001908152602001600020612e5690919063ffffffff16565b50600073ffffffffffffffffffffffffffffffffffffffff16816060015173ffffffffffffffffffffffffffffffffffffffff161415611afd57611a25600760008073ffffffffffffffffffffffffffffffffffffffff1673ffffffffffffffffffffffffffffffffffffffff16815260200190815260200160002060008360a0015173ffffffffffffffffffffffffffffffffffffffff1673ffffffffffffffffffffffffffffffffffffffff168152602001908152602001600020548260800151612a18565b600760008073ffffffffffffffffffffffffffffffffffffffff1673ffffffffffffffffffffffffffffffffffffffff16815260200190815260200160002060008360a0015173ffffffffffffffffffffffffffffffffffffffff1673ffffffffffffffffffffffffffffffffffffffff168152602001908152602001600020819055508060a0015173ffffffffffffffffffffffffffffffffffffffff166108fc82608001519081150290604051600060405180830381858888f19350505050158015611af7573d6000803e3d6000fd5b50611b1a565b611b1981606001518260a001518360a001518460800151612f68565b5b8060c0015173ffffffffffffffffffffffffffffffffffffffff168160a0015173ffffffffffffffffffffffffffffffffffffffff167f745b716a3cbd24a5a2958f87df530aa9236aba3079c439d116782f4ff312e35a84846000015185602001518660400151876060015188608001518960e001518a61010001516002811115611ba157fe5b604051611bb59897969594939291906150e0565b60405180910390a35050565b6000611bcb613f89565b6080604051908101604052808a81526020018973ffffffffffffffffffffffffffffffffffffffff1681526020018873ffffffffffffffffffffffffffffffffffffffff16815260200187815250905060006001611c2883613164565b85888860405160008152602001604052604051808581526020018460ff1660ff1681526020018381526020018281526020019450505050506020604051602081039080840390855afa158015611c82573d6000803e3d6000fd5b505050602060405103519050611c9b8883888888613297565b92505050979650505050505050565b60606000600260003373ffffffffffffffffffffffffffffffffffffffff1673ffffffffffffffffffffffffffffffffffffffff16815260200190815260200160002090506060611cfa82612dc1565b9050809250505090565b6000606082846040516020018083805190602001908083835b602083101515611d425780518252602082019150602081019050602083039250611d1d565b6001836020036101000a0380198251168184511680821785525050505050509050018273ffffffffffffffffffffffffffffffffffffffff1673ffffffffffffffffffffffffffffffffffffffff166c0100000000000000000000000002815260140192505050604051602081830303815290604052805190602001206040516020018082815260200191505060405160208183030381529060405290506000611deb8261126d565b9050809250505092915050565b600460009054906101000a900473ffffffffffffffffffffffffffffffffffffffff1673ffffffffffffffffffffffffffffffffffffffff163373ffffffffffffffffffffffffffffffffffffffff16141515611e8a576040517f08c379a0000000000000000000000000000000000000000000000000000000008152600401611e8190614f3b565b60405180910390fd5b8060068190555050565b611e9c613f89565b6080604051908101604052808981526020018873ffffffffffffffffffffffffffffffffffffffff1681526020018773ffffffffffffffffffffffffffffffffffffffff16815260200186815250905060006001611ef983613164565b84878760405160008152602001604052604051808581526020018460ff1660ff1681526020018381526020018281526020019450505050506020604051602081039080840390855afa158015611f53573d6000803e3d6000fd5b5050506020604051035190508073ffffffffffffffffffffffffffffffffffffffff168773ffffffffffffffffffffffffffffffffffffffff16141515611fcf576040517f08c379a0000000000000000000000000000000000000000000000000000000008152600401611fc690614e1b565b60405180910390fd5b611fd7613e27565b600360008b815260200190815260200160002061012060405190810160405290816000820154815260200160018201548152602001600282015481526020016003820160009054906101000a900473ffffffffffffffffffffffffffffffffffffffff1673ffffffffffffffffffffffffffffffffffffffff1673ffffffffffffffffffffffffffffffffffffffff168152602001600482015481526020016005820160009054906101000a900473ffffffffffffffffffffffffffffffffffffffff1673ffffffffffffffffffffffffffffffffffffffff1673ffffffffffffffffffffffffffffffffffffffff1681526020016006820160009054906101000a900473ffffffffffffffffffffffffffffffffffffffff1673ffffffffffffffffffffffffffffffffffffffff1673ffffffffffffffffffffffffffffffffffffffff168152602001600782018054600181600116156101000203166002900480601f0160208091040260200160405190810160405280929190818152602001828054600181600116156101000203166002900480156121ba5780601f1061218f576101008083540402835291602001916121ba565b820191906000526020600020905b81548152906001019060200180831161219d57829003601f168201915b505050505081526020016008820160009054906101000a900460ff1660028111156121e157fe5b60028111156121ec57fe5b8152505090508773ffffffffffffffffffffffffffffffffffffffff168160c0015173ffffffffffffffffffffffffffffffffffffffff16141515612266576040517f08c379a000000000000000000000000000000000000000000000000000000000815260040161225d90614dfb565b60405180910390fd5b612271818b89613313565b50505050505050505050565b6122cf600086868686868080601f016020809104026020016040519081016040528093929190818152602001838380828437600081840152601f19601f8201169050808301925050505050505061094b565b5050505050565b6000806000806000806000606060006122ed613e27565b600360008c815260200190815260200160002061012060405190810160405290816000820154815260200160018201548152602001600282015481526020016003820160009054906101000a900473ffffffffffffffffffffffffffffffffffffffff1673ffffffffffffffffffffffffffffffffffffffff1673ffffffffffffffffffffffffffffffffffffffff168152602001600482015481526020016005820160009054906101000a900473ffffffffffffffffffffffffffffffffffffffff1673ffffffffffffffffffffffffffffffffffffffff1673ffffffffffffffffffffffffffffffffffffffff1681526020016006820160009054906101000a900473ffffffffffffffffffffffffffffffffffffffff1673ffffffffffffffffffffffffffffffffffffffff1673ffffffffffffffffffffffffffffffffffffffff168152602001600782018054600181600116156101000203166002900480601f0160208091040260200160405190810160405280929190818152602001828054600181600116156101000203166002900480156124d05780601f106124a5576101008083540402835291602001916124d0565b820191906000526020600020905b8154815290600101906020018083116124b357829003601f168201915b505050505081526020016008820160009054906101000a900460ff1660028111156124f757fe5b600281111561250257fe5b815250509050806000015181602001518260400151836060015184608001518560a001518660c001518760e00151886101000151600281111561254157fe5b839350829250819150995099509950995099509950995099509950509193959799909294969850565b600460009054906101000a900473ffffffffffffffffffffffffffffffffffffffff1673ffffffffffffffffffffffffffffffffffffffff163373ffffffffffffffffffffffffffffffffffffffff161415156125fc576040517f08c379a00000000000000000000000000000000000000000000000000000000081526004016125f390614f3b565b60405180910390fd5b8060058190555050565b61260e613e27565b6003600084815260200190815260200160002061012060405190810160405290816000820154815260200160018201548152602001600282015481526020016003820160009054906101000a900473ffffffffffffffffffffffffffffffffffffffff1673ffffffffffffffffffffffffffffffffffffffff1673ffffffffffffffffffffffffffffffffffffffff168152602001600482015481526020016005820160009054906101000a900473ffffffffffffffffffffffffffffffffffffffff1673ffffffffffffffffffffffffffffffffffffffff1673ffffffffffffffffffffffffffffffffffffffff1681526020016006820160009054906101000a900473ffffffffffffffffffffffffffffffffffffffff1673ffffffffffffffffffffffffffffffffffffffff1673ffffffffffffffffffffffffffffffffffffffff168152602001600782018054600181600116156101000203166002900480601f0160208091040260200160405190810160405280929190818152602001828054600181600116156101000203166002900480156127f15780601f106127c6576101008083540402835291602001916127f1565b820191906000526020600020905b8154815290600101906020018083116127d457829003601f168201915b505050505081526020016008820160009054906101000a900460ff16600281111561281857fe5b600281111561282357fe5b8152505090503373ffffffffffffffffffffffffffffffffffffffff168160c0015173ffffffffffffffffffffffffffffffffffffffff1614151561289d576040517f08c379a000000000000000000000000000000000000000000000000000000000815260040161289490614ebb565b60405180910390fd5b6128a8818484613313565b505050565b6000600760008373ffffffffffffffffffffffffffffffffffffffff1673ffffffffffffffffffffffffffffffffffffffff16815260200190815260200160002060003373ffffffffffffffffffffffffffffffffffffffff1673ffffffffffffffffffffffffffffffffffffffff168152602001908152602001600020549050919050565b6000600654905090565b60008083141561295057600090506129ab565b6000828402905082848281151561296357fe5b041415156129a6576040517f08c379a000000000000000000000000000000000000000000000000000000000815260040161299d90614edb565b60405180910390fd5b809150505b92915050565b60008082840190508381101515156129fe576040517f08c379a00000000000000000000000000000000000000000000000000000000081526004016129f590614ddb565b60405180910390fd5b8091505092915050565b612a13838383613905565b505050565b6000828211151515612a5f576040517f08c379a0000000000000000000000000000000000000000000000000000000008152600401612a5690614e5b565b60405180910390fd5b600082840390508091505092915050565b600073ffffffffffffffffffffffffffffffffffffffff168473ffffffffffffffffffffffffffffffffffffffff1614151515612aac57600080fd5b8373ffffffffffffffffffffffffffffffffffffffff166323b872dd8430612ad486866129b1565b6040518463ffffffff167c0100000000000000000000000000000000000000000000000000000000028152600401612b0e93929190614cc4565b602060405180830381600087803b158015612b2857600080fd5b505af1158015612b3c573d6000803e3d6000fd5b505050506040513d601f19601f82011682018060405250612b6091908101906143a3565b1515612b6b57600080fd5b612bf1600760008673ffffffffffffffffffffffffffffffffffffffff1673ffffffffffffffffffffffffffffffffffffffff16815260200190815260200160002060003373ffffffffffffffffffffffffffffffffffffffff1673ffffffffffffffffffffffffffffffffffffffff16815260200190815260200160002054836129b1565b600760008673ffffffffffffffffffffffffffffffffffffffff1673ffffffffffffffffffffffffffffffffffffffff16815260200190815260200160002060008573ffffffffffffffffffffffffffffffffffffffff1673ffffffffffffffffffffffffffffffffffffffff16815260200190815260200160002081905550612d19600760008673ffffffffffffffffffffffffffffffffffffffff1673ffffffffffffffffffffffffffffffffffffffff1681526020019081526020016000206000600460009054906101000a900473ffffffffffffffffffffffffffffffffffffffff1673ffffffffffffffffffffffffffffffffffffffff1673ffffffffffffffffffffffffffffffffffffffff16815260200190815260200160002054826129b1565b600760008673ffffffffffffffffffffffffffffffffffffffff1673ffffffffffffffffffffffffffffffffffffffff1681526020019081526020016000206000600460009054906101000a900473ffffffffffffffffffffffffffffffffffffffff1673ffffffffffffffffffffffffffffffffffffffff1673ffffffffffffffffffffffffffffffffffffffff1681526020019081526020016000208190555050505050565b6060808260030154604051908082528060200260200182016040528015612df75781602001602082028038833980820191505090505b50905060008360010154905060008090505b8460030154811015612e4b57818382815181101515612e2457fe5b9060200190602002018181525050612e3c8583613938565b91508080600101915050612e09565b508192505050919050565b60008083600001600084815260200190815260200160002060010154905060008460000160008581526020019081526020016000206000015490506000811415612ea857818560010181905550612ec6565b81856000016000838152602001908152602001600020600101819055505b6000821415612edd57808560020181905550612efb565b80856000016000848152602001908152602001600020600001819055505b8460000160008581526020019081526020016000206000808201600090556001820160009055600282016000612f319190613f41565b6003820160006101000a81549060ff0219169055505084600301600081548092919060019003919050555060019250505092915050565b600073ffffffffffffffffffffffffffffffffffffffff168473ffffffffffffffffffffffffffffffffffffffff1614151515612fa457600080fd5b8373ffffffffffffffffffffffffffffffffffffffff1663a9059cbb83836040518363ffffffff167c0100000000000000000000000000000000000000000000000000000000028152600401612ffb929190614cfb565b602060405180830381600087803b15801561301557600080fd5b505af1158015613029573d6000803e3d6000fd5b505050506040513d601f19601f8201168201806040525061304d91908101906143a3565b151561305857600080fd5b6130de600760008673ffffffffffffffffffffffffffffffffffffffff1673ffffffffffffffffffffffffffffffffffffffff16815260200190815260200160002060008573ffffffffffffffffffffffffffffffffffffffff1673ffffffffffffffffffffffffffffffffffffffff1681526020019081526020016000205482612a18565b600760008673ffffffffffffffffffffffffffffffffffffffff1673ffffffffffffffffffffffffffffffffffffffff16815260200190815260200160002060008573ffffffffffffffffffffffffffffffffffffffff1673ffffffffffffffffffffffffffffffffffffffff1681526020019081526020016000208190555050505050565b600060085460806040519081016040528060568152602001615351605691396040516020018082805190602001908083835b6020831015156131bb5780518252602082019150602081019050602083039250613196565b6001836020036101000a03801982511681845116808217855250505050505090500191505060405160208183030381529060405280519060200120836000015184602001518560400151866060015180519060200120604051602001613225959493929190614d46565b6040516020818303038152906040528051906020012060405160200180807f190100000000000000000000000000000000000000000000000000000000000081525060020183815260200182815260200192505050604051602081830303815290604052805190602001209050919050565b600060016132a486613164565b83868660405160008152602001604052604051808581526020018460ff1660ff1681526020018381526020018281526020019450505050506020604051602081039080840390855afa1580156132fe573d6000803e3d6000fd5b50505060206040510351905095945050505050565b6000600281111561332057fe5b836101000151600281111561333157fe5b141515613373576040517f08c379a000000000000000000000000000000000000000000000000000000000815260040161336a90614e9b565b60405180910390fd5b6060818460c001516040516020018083805190602001908083835b6020831015156133b3578051825260208201915060208101905060208303925061338e565b6001836020036101000a0380198251168184511680821785525050505050509050018273ffffffffffffffffffffffffffffffffffffffff1673ffffffffffffffffffffffffffffffffffffffff166c01000000000000000000000000028152601401925050506040516020818303038152906040528051906020012060405160200180828152602001915050604051602081830303815290604052905061345e8460e0015161126d565b6134678261126d565b1415156134a9576040517f08c379a00000000000000000000000000000000000000000000000000000000081526004016134a090614e7b565b60405180910390fd5b4284600001518560200151011115156134f7576040517f08c379a00000000000000000000000000000000000000000000000000000000081526004016134ee90614f5b565b60405180910390fd5b428460400181815250506001846101000190600281111561351457fe5b9081600281111561352157fe5b8152505060036000848152602001908152602001600020600080820160009055600182016000905560028201600090556003820160006101000a81549073ffffffffffffffffffffffffffffffffffffffff021916905560048201600090556005820160006101000a81549073ffffffffffffffffffffffffffffffffffffffff02191690556006820160006101000a81549073ffffffffffffffffffffffffffffffffffffffff02191690556007820160006135de9190613f41565b6008820160006101000a81549060ff0219169055505061364983600160008760c0015173ffffffffffffffffffffffffffffffffffffffff1673ffffffffffffffffffffffffffffffffffffffff168152602001908152602001600020612e5690919063ffffffff16565b5061369f83600260008760a0015173ffffffffffffffffffffffffffffffffffffffff1673ffffffffffffffffffffffffffffffffffffffff168152602001908152602001600020612e5690919063ffffffff16565b50600073ffffffffffffffffffffffffffffffffffffffff16846060015173ffffffffffffffffffffffffffffffffffffffff16141561383f578360c0015173ffffffffffffffffffffffffffffffffffffffff166108fc85608001519081150290604051600060405180830381858888f19350505050158015613727573d6000803e3d6000fd5b506137b6600760008073ffffffffffffffffffffffffffffffffffffffff1673ffffffffffffffffffffffffffffffffffffffff16815260200190815260200160002060008660a0015173ffffffffffffffffffffffffffffffffffffffff1673ffffffffffffffffffffffffffffffffffffffff168152602001908152602001600020548560800151612a18565b600760008073ffffffffffffffffffffffffffffffffffffffff1673ffffffffffffffffffffffffffffffffffffffff16815260200190815260200160002060008660a0015173ffffffffffffffffffffffffffffffffffffffff1673ffffffffffffffffffffffffffffffffffffffff1681526020019081526020016000208190555061385c565b61385b84606001518560a001518660c001518760800151612f68565b5b8360c0015173ffffffffffffffffffffffffffffffffffffffff168460a0015173ffffffffffffffffffffffffffffffffffffffff167f745b716a3cbd24a5a2958f87df530aa9236aba3079c439d116782f4ff312e35a858760000151886020015189604001518a606001518b608001518c60e001518d610100015160028111156138e357fe5b6040516138f79897969594939291906150e0565b60405180910390a350505050565b6000836002015414156139225761391d83838361395b565b613933565b6139328384600201548484613a97565b5b505050565b600082600001600083815260200190815260200160002060010154905092915050565b82600001600083815260200190815260200160002060030160009054906101000a900460ff16156139b8578083600001600084815260200190815260200160002060020190805190602001906139b2929190613fde565b50613a92565b600083600101541415613a805781836001018190555081836002018190555060806040519081016040528060008152602001600081526020018281526020016001151581525083600001600084815260200190815260200160002060008201518160000155602082015181600101556040820151816002019080519060200190613a43929190613ec1565b5060608201518160030160006101000a81548160ff0219169083151502179055509050508260030160008154809291906001019190505550613a91565b613a908384600101548484613c5f565b5b5b505050565b83600001600083815260200190815260200160002060030160009054906101000a900460ff1615613af457808460000160008481526020019081526020016000206002019080519060200190613aee929190613fde565b50613c59565b82846000016000848152602001908152602001600020600001819055506000846000016000858152602001908152602001600020600101541415613b5e57600084600001600084815260200190815260200160002060010181905550818460020181905550613bc9565b836000016000848152602001908152602001600020600101548460000160008481526020019081526020016000206001018190555081846000016000866000016000878152602001908152602001600020600101548152602001908152602001600020600001819055505b808460000160008481526020019081526020016000206002019080519060200190613bf5929190613fde565b50600184600001600084815260200190815260200160002060030160006101000a81548160ff021916908315150217905550818460000160008581526020019081526020016000206001018190555083600301600081548092919060010191905055505b50505050565b83600001600083815260200190815260200160002060030160009054906101000a900460ff1615613cbc57808460000160008481526020019081526020016000206002019080519060200190613cb6929190613fde565b50613e21565b82846000016000848152602001908152602001600020600101819055506000846000016000858152602001908152602001600020600001541415613d2657600084600001600084815260200190815260200160002060000181905550818460010181905550613d91565b836000016000848152602001908152602001600020600001548460000160008481526020019081526020016000206000018190555081846000016000866000016000878152602001908152602001600020600001548152602001908152602001600020600101819055505b808460000160008481526020019081526020016000206002019080519060200190613dbd929190613fde565b50600184600001600084815260200190815260200160002060030160006101000a81548160ff021916908315150217905550818460000160008581526020019081526020016000206000018190555083600301600081548092919060010191905055505b50505050565b61012060405190810160405280600081526020016000815260200160008152602001600073ffffffffffffffffffffffffffffffffffffffff16815260200160008152602001600073ffffffffffffffffffffffffffffffffffffffff168152602001600073ffffffffffffffffffffffffffffffffffffffff1681526020016060815260200160006002811115613ebb57fe5b81525090565b828054600181600116156101000203166002900490600052602060002090601f016020900481019282601f10613f0257805160ff1916838001178555613f30565b82800160010185558215613f30579182015b82811115613f2f578251825591602001919060010190613f14565b5b509050613f3d919061405e565b5090565b50805460018160011615610100020316600290046000825580601f10613f675750613f86565b601f016020900490600052602060002090810190613f85919061405e565b5b50565b60806040519081016040528060008152602001600073ffffffffffffffffffffffffffffffffffffffff168152602001600073ffffffffffffffffffffffffffffffffffffffff168152602001606081525090565b828054600181600116156101000203166002900490600052602060002090601f016020900481019282601f1061401f57805160ff191683800117855561404d565b8280016001018555821561404d579182015b8281111561404c578251825591602001919060010190614031565b5b50905061405a919061405e565b5090565b61408091905b8082111561407c576000816000905550600101614064565b5090565b90565b600061408f8235615276565b905092915050565b60006140a38235615288565b905092915050565b60006140b7825161529a565b905092915050565b60006140cb82356152a6565b905092915050565b60006140df82516152a6565b905092915050565b60008083601f84011215156140fb57600080fd5b8235905067ffffffffffffffff81111561411457600080fd5b60208301915083600182028301111561412c57600080fd5b9250929050565b600082601f830112151561414657600080fd5b813561415961415482615192565b615165565b9150808252602083016020830185838301111561417557600080fd5b6141808382846152fd565b50505092915050565b600082601f830112151561419c57600080fd5b81356141af6141aa826151be565b615165565b915080825260208301602083018583830111156141cb57600080fd5b6141d68382846152fd565b50505092915050565b60006141eb82356152b0565b905092915050565b60006141ff82356152ba565b905092915050565b60006020828403121561421957600080fd5b600061422784828501614083565b91505092915050565b6000806040838503121561424357600080fd5b600061425185828601614083565b925050602061426285828601614083565b9150509250929050565b6000806040838503121561427f57600080fd5b600061428d85828601614083565b925050602083013567ffffffffffffffff8111156142aa57600080fd5b6142b685828601614133565b9150509250929050565b600080604083850312156142d357600080fd5b60006142e185828601614083565b925050602083013567ffffffffffffffff8111156142fe57600080fd5b61430a85828601614189565b9150509250929050565b600080600080600060a0868803121561432c57600080fd5b600061433a88828901614083565b955050602061434b888289016141df565b945050604061435c88828901614097565b935050606061436d888289016141df565b925050608086013567ffffffffffffffff81111561438a57600080fd5b61439688828901614133565b9150509295509295909350565b6000602082840312156143b557600080fd5b60006143c3848285016140ab565b91505092915050565b6000602082840312156143de57600080fd5b60006143ec848285016140d3565b91505092915050565b60006020828403121561440757600080fd5b600082013567ffffffffffffffff81111561442157600080fd5b61442d84828501614133565b91505092915050565b60006020828403121561444857600080fd5b6000614456848285016141df565b91505092915050565b60008060008060006080868803121561447757600080fd5b6000614485888289016141df565b955050602061449688828901614097565b94505060406144a7888289016141df565b935050606086013567ffffffffffffffff8111156144c457600080fd5b6144d0888289016140e7565b92509250509295509295909350565b600080600080600080600060e0888a0312156144fa57600080fd5b60006145088a828b016141df565b97505060206145198a828b01614083565b965050604061452a8a828b01614083565b955050606088013567ffffffffffffffff81111561454757600080fd5b6145538a828b01614189565b94505060806145648a828b016140bf565b93505060a06145758a828b016140bf565b92505060c06145868a828b016141f3565b91505092959891949750929550565b600080604083850312156145a857600080fd5b60006145b6858286016141df565b925050602083013567ffffffffffffffff8111156145d357600080fd5b6145df85828601614189565b9150509250929050565b6145f2816152c7565b82525050565b61460181615230565b82525050565b6000614612826151f7565b808452602084019350614624836151ea565b60005b828110156146565761463a868351614c71565b61464382615223565b9150602086019550600181019050614627565b50849250505092915050565b61466b81615242565b82525050565b600061467c8261520d565b80845261469081602086016020860161530c565b6146998161533f565b602085010191505092915050565b60006146b282615202565b8084526146c681602086016020860161530c565b6146cf8161533f565b602085010191505092915050565b60006146e882615218565b8084526146fc81602086016020860161530c565b6147058161533f565b602085010191505092915050565b6000602d82527f4d6573736167652076616c7565206973206e6f7420656e6f75676820746f206360208301527f6f766572206261736520666565000000000000000000000000000000000000006040830152606082019050919050565b6000601b82527f536166654d6174683a206164646974696f6e206f766572666c6f7700000000006020830152604082019050919050565b6000604182527f546865207061796d656e74277320726563697069656e74206d7573742062652060208301527f7468652073616d65206173207369676e6572206f6620746865206d657373616760408301527f65000000000000000000000000000000000000000000000000000000000000006060830152608082019050919050565b6000604382527f546865206d65737361676520726563697069656e74206d75737420626520746860208301527f652073616d6520617320746865207369676e6572206f6620746865206d65737360408301527f61676500000000000000000000000000000000000000000000000000000000006060830152608082019050919050565b6000603b82527f5061796d656e74204944206d75737420626520756e697175652e20557365206160208301527f20646966666572656e74207061737370687261736520686173682e00000000006040830152606082019050919050565b6000601e82527f536166654d6174683a207375627472616374696f6e206f766572666c6f7700006020830152604082019050919050565b6000601982527f50617373706872617365206973206e6f7420636f7272656374000000000000006020830152604082019050919050565b6000602682527f5061796d656e74206d757374206265206f70656e20746f20726574726965766560208301527f2066756e647300000000000000000000000000000000000000000000000000006040830152606082019050919050565b6000602b82527f4d6573736167652073656e646572206d757374206d61746368207061796d656e60208301527f7420726563697069656e740000000000000000000000000000000000000000006040830152606082019050919050565b6000602182527f536166654d6174683a206d756c7469706c69636174696f6e206f766572666c6f60208301527f77000000000000000000000000000000000000000000000000000000000000006040830152606082019050919050565b6000602d82527f5061796d656e742073656e64657220646f6573206e6f74206d61746368206d6560208301527f73736167652073656e6465722e000000000000000000000000000000000000006040830152606082019050919050565b6000601f82527f5061796d656e74206d757374206265206f70656e20746f2063616e63656c2e006020830152604082019050919050565b6000603882527f4f6e6c792074686520636f6e7472616374206f776e657220697320616c6c6f7760208301527f656420746f2075736520746869732066756e6374696f6e2e00000000000000006040830152606082019050919050565b6000601d82527f486f6c642074696d652068617320616c726561647920657870697265640000006020830152604082019050919050565b6000602582527f436f756c64206e6f74207375636365737366756c6c792077697468647261772060208301527f746f6b656e0000000000000000000000000000000000000000000000000000006040830152606082019050919050565b6000603482527f4d6573736167652076616c7565206973206e6f7420656e6f75676820746f206360208301527f6f76657220616d6f756e7420616e6420666565730000000000000000000000006040830152606082019050919050565b614c7a8161526c565b82525050565b6000602082019050614c9560008301846145f8565b92915050565b6000604082019050614cb060008301856145e9565b614cbd6020830184614c71565b9392505050565b6000606082019050614cd960008301866145f8565b614ce660208301856145f8565b614cf36040830184614c71565b949350505050565b6000604082019050614d1060008301856145f8565b614d1d6020830184614c71565b9392505050565b60006020820190508181036000830152614d3e8184614607565b905092915050565b600060a082019050614d5b6000830188614662565b614d686020830187614c71565b614d7560408301866145f8565b614d8260608301856145f8565b614d8f6080830184614662565b9695505050505050565b60006020820190508181036000830152614db381846146dd565b905092915050565b60006020820190508181036000830152614dd481614713565b9050919050565b60006020820190508181036000830152614df481614770565b9050919050565b60006020820190508181036000830152614e14816147a7565b9050919050565b60006020820190508181036000830152614e348161482a565b9050919050565b60006020820190508181036000830152614e54816148ad565b9050919050565b60006020820190508181036000830152614e748161490a565b9050919050565b60006020820190508181036000830152614e9481614941565b9050919050565b60006020820190508181036000830152614eb481614978565b9050919050565b60006020820190508181036000830152614ed4816149d5565b9050919050565b60006020820190508181036000830152614ef481614a32565b9050919050565b60006020820190508181036000830152614f1481614a8f565b9050919050565b60006020820190508181036000830152614f3481614aec565b9050919050565b60006020820190508181036000830152614f5481614b23565b9050919050565b60006020820190508181036000830152614f7481614b80565b9050919050565b60006020820190508181036000830152614f9481614bb7565b9050919050565b60006020820190508181036000830152614fb481614c14565b9050919050565b6000602082019050614fd06000830184614c71565b92915050565b600061012082019050614fec600083018c614c71565b614ff9602083018b614c71565b615006604083018a614c71565b61501360608301896145f8565b6150206080830188614c71565b61502d60a08301876145f8565b61503a60c08301866145f8565b81810360e083015261504c8185614671565b905061505c610100830184614c71565b9a9950505050505050505050565b600060e08201905061507f600083018a614c71565b61508c6020830189614c71565b6150996040830188614c71565b6150a66060830187614c71565b6150b360808301866145f8565b6150c060a0830185614c71565b81810360c08301526150d281846146a7565b905098975050505050505050565b6000610100820190506150f6600083018b614c71565b615103602083018a614c71565b6151106040830189614c71565b61511d6060830188614c71565b61512a60808301876145f8565b61513760a0830186614c71565b81810360c083015261514981856146a7565b905061515860e0830184614c71565b9998505050505050505050565b6000604051905081810181811067ffffffffffffffff8211171561518857600080fd5b8060405250919050565b600067ffffffffffffffff8211156151a957600080fd5b601f19601f8301169050602081019050919050565b600067ffffffffffffffff8211156151d557600080fd5b601f19601f8301169050602081019050919050565b6000602082019050919050565b600081519050919050565b600081519050919050565b600081519050919050565b600081519050919050565b6000602082019050919050565b600061523b8261524c565b9050919050565b6000819050919050565b600073ffffffffffffffffffffffffffffffffffffffff82169050919050565b6000819050919050565b60006152818261524c565b9050919050565b60006152938261524c565b9050919050565b60008115159050919050565b6000819050919050565b6000819050919050565b600060ff82169050919050565b60006152d2826152d9565b9050919050565b60006152e4826152eb565b9050919050565b60006152f68261524c565b9050919050565b82818337600083830152505050565b60005b8381101561532a57808201518184015260208101905061530f565b83811115615339576000848401525b50505050565b6000601f19601f830116905091905056fe526574726965766546756e6473526571756573742875696e743235362074786e49642c616464726573732073656e6465722c6164647265737320726563697069656e742c737472696e67207061737370687261736529a265627a7a723058207a7c6401e5e3b56c1b32a2cc709493da03d6d2a6e79a2e101b759302f37988276c6578706572696d656e74616cf50037454950373132446f6d61696e28737472696e67206e616d652c737472696e672076657273696f6e2c75696e7432353620636861696e49642c6164647265737320766572696679696e67436f6e74726163742c627974657333322073616c7429",
  "source": "pragma solidity ^0.5.2;\npragma experimental ABIEncoderV2;\n\nimport \"./Dictionary.sol\";\nimport \"openzeppelin-solidity/contracts/token/ERC20/IERC20.sol\";\nimport \"openzeppelin-solidity/contracts/math/SafeMath.sol\";\n\n/**\n * @title Etherclear\n * @dev The Etherclear contract is meant to serve as a transition step for funds between a sender\n * and a recipient, where the sender can take the funds back if they cancel the payment,\n * and the recipient can only retrieve the funds in a specified amount of time, using\n * a passphrase communicated privately by the sender.\n *\n * The usage of the contract is as follows:\n *\n * 1) The sender generates a passphrase, and passes keccak256(passphrase,recipient_address) to the\n * contract, along with a hold time. This registers a payment ID (which must be unique), and\n * marks the start of the holding time window.\n * 2) The sender communicates this passphrase to the recipient over a secure channel.\n * 3) Before the holding time has passed, the recipient can send the passphrase to the contract to withdraw the funds.\n * 4) After the holding time has passed, the recipient is no longer able to withdraw the funds, regardless\n * of whether they have the passphrase or not.\n *\n * At any time, the sender can cancel the payment if they provide the payment ID, which\n * will initiate a transfer of funds back to the sender.\n * The sender is expected to cancel the payment if they have made a mistake in specifying\n * the recipient's address, the recipient does not claim the funds, or if the holding period has expired and the\n * funds need to be retrieved.\n *\n * TODO: Currently, the payment ID is a truncated version of the passphrase hash that is used to ensure knowledge of the\n * passphrase. They will be left as separate entities for now in case they need to be constructed differently.\n *\n * NOTE: the hold time functionality is not very secure for small time periods since it uses now (block.timestamp). It is meant to be an additional security measure, and should not be relied upon in the case of an\n attack. The current known tolerance is 900 seconds:\n * https://github.com/ethereum/wiki/blob/c02254611f218f43cbb07517ca8e5d00fd6d6d75/Block-Protocol-2.0.md\n *\n * Some parts are modified from https://github.com/forkdelta/smart_contract/blob/master/contracts/ForkDelta.sol\n*/\n\n/*\n * This is used as an interface to provide functionality when setting up the contract with ENS.\n*/\ncontract ReverseRegistrar {\n    function setName(string memory name) public returns (bytes32);\n}\n\ncontract Etherclear {\n    /*\n    * The dictionary is used as an iterable mapping implementation.\n    */\n    using Dictionary for Dictionary.Data;\n\n    // TODO: think about adding a ERC223 fallback method.\n\n    // NOTE: PaymentClosed has the same signature\n    // because we want to look for payments\n    // from the latest block backwards, and\n    // we want to terminate the search for\n    // past events as soon as possible when doing so.\n    event PaymentOpened(\n        uint txnId,\n        uint holdTime,\n        uint openTime,\n        uint closeTime,\n        address token,\n        uint sendAmount,\n        address indexed sender,\n        address indexed recipient,\n        bytes codeHash\n    );\n    event PaymentClosed(\n        uint txnId,\n        uint holdTime,\n        uint openTime,\n        uint closeTime,\n        address token,\n        uint sendAmount,\n        address indexed sender,\n        address indexed recipient,\n        bytes codeHash,\n        uint state\n    );\n\n    // A Payment starts in the OPEN state.\n    // Once it is COMPLETED or CANCELLED, it cannot be changed further.\n    enum PaymentState {OPEN, COMPLETED, CANCELLED}\n\n    // A Payment is created each time a sender wants to\n    // send an amount to a recipient.\n    struct Payment {\n        // timestamps are in epoch seconds\n        uint holdTime;\n        uint paymentOpenTime;\n        uint paymentCloseTime;\n        // Token contract address, 0 is Ether.\n        address token;\n        uint sendAmount;\n        address payable sender;\n        address payable recipient;\n        bytes codeHash;\n        PaymentState state;\n    }\n\n    ReverseRegistrar reverseRegistrar;\n\n    // EIP-712 code uses the examples provided at\n    // https://medium.com/metamask/eip712-is-coming-what-to-expect-and-how-to-use-it-bb92fd1a7a26\n    // TODO: the salt and verifyingContract still need to be changed.\n    struct RetrieveFundsRequest {\n        uint txnId;\n        address sender;\n        address recipient;\n        string passphrase;\n    }\n\n    // Payments where msg.sender is the recipient.\n    mapping(address => Dictionary.Data) recipientPayments;\n    // Payments where msg.sender is the sender.\n    mapping(address => Dictionary.Data) senderPayments;\n    // Payments are looked up with a uint UUID generated within the contract.\n    mapping(uint => Payment) allPayments;\n\n    // This contract's owner (gives ability to set fees).\n    address payable owner;\n    // The fees are represented with a percentage times 1 ether.\n    // The baseFee is to cover feeless retrieval\n    // The paymentFee is to cover development costs\n    uint baseFee;\n    uint paymentFee;\n    // mapping of token addresses to mapping of account balances (token=0 means Ether)\n    mapping(address => mapping(address => uint)) public tokens;\n\n    address constant verifyingContract = 0x1C56346CD2A2Bf3202F771f50d3D14a367B48070;\n    bytes32 constant salt = 0xf2d857f4a3edcb9b78b4d503bfe733db1e3f6cdc2b7971ee739626c97e86a558;\n    string private constant RETRIEVE_FUNDS_REQUEST_TYPE = \"RetrieveFundsRequest(uint256 txnId,address sender,address recipient,string passphrase)\";\n    string private constant EIP712_DOMAIN_TYPE = \"EIP712Domain(string name,string version,uint256 chainId,address verifyingContract,bytes32 salt)\";\n    bytes32 private constant EIP712_DOMAIN_TYPEHASH = keccak256(\n        abi.encodePacked(EIP712_DOMAIN_TYPE)\n    );\n    bytes32 private constant RETRIEVE_FUNDS_REQUEST_TYPEHASH = keccak256(\n        abi.encodePacked(RETRIEVE_FUNDS_REQUEST_TYPE)\n    );\n    bytes32 private DOMAIN_SEPARATOR;\n    uint256 chainId;\n\n    function hashRetrieveFundsRequest(RetrieveFundsRequest memory request)\n        private\n        view\n        returns (bytes32 hash)\n    {\n        return keccak256(\n            abi.encodePacked(\n                \"\\x19\\x01\",\n                DOMAIN_SEPARATOR,\n                keccak256(\n                    abi.encode(\n                        RETRIEVE_FUNDS_REQUEST_TYPEHASH,\n                        request.txnId,\n                        request.sender,\n                        request.recipient,\n                        keccak256(bytes(request.passphrase))\n                    )\n                )\n            )\n        );\n    }\n\n    function verify(\n        address signer,\n        RetrieveFundsRequest memory request,\n        bytes32 sigR,\n        bytes32 sigS,\n        uint8 sigV\n    ) private view returns (address result) {\n        return ecrecover(hashRetrieveFundsRequest(request), sigV, sigR, sigS);\n    }\n\n    // Used to test the sign and recover functionality.\n    function checkRetrieveSignature(\n        uint256 txnId,\n        address sender,\n        address recipient,\n        string memory passphrase,\n        bytes32 sigR,\n        bytes32 sigS,\n        uint8 sigV\n    ) public view returns (address result) {\n        RetrieveFundsRequest memory request = RetrieveFundsRequest(\n            txnId,\n            sender,\n            recipient,\n            passphrase\n        );\n        address signer = ecrecover(\n            hashRetrieveFundsRequest(request),\n            sigV,\n            sigR,\n            sigS\n        );\n        return verify(recipient, request, sigR, sigS, sigV);\n    }\n\n    constructor(uint256 _chainId) public {\n        owner = msg.sender;\n        baseFee = 0.001 ether;\n        paymentFee = 0.005 ether;\n        chainId = _chainId;\n        DOMAIN_SEPARATOR = keccak256(\n            abi.encode(\n                EIP712_DOMAIN_TYPEHASH,\n                keccak256(\"Etherclear\"),\n                keccak256(\"1\"),\n                chainId,\n                verifyingContract,\n                salt\n            )\n        );\n    }\n\n    function getChainId() public pure returns (uint256 chainId) {\n        return chainId;\n    }\n\n    modifier onlyOwner {\n        require(\n            msg.sender == owner,\n            \"Only the contract owner is allowed to use this function.\"\n        );\n        _;\n    }\n\n    /*\n    * SetENS sets the name of the reverse record so that it points to this contract address.\n    */\n    function setENS(address reverseRegistrarAddr, string memory name)\n        public\n        onlyOwner\n    {\n        reverseRegistrar = ReverseRegistrar(reverseRegistrarAddr);\n        reverseRegistrar.setName(name);\n\n    }\n\n    function withdrawFees(address token) external onlyOwner {\n        // The \"owner\" account is considered the fee account.\n        uint total = tokens[token][owner];\n        tokens[token][owner] = 0;\n        if (token == address(0)) {\n            owner.transfer(total);\n        } else {\n            require(\n                IERC20(token).transfer(owner, total),\n                \"Could not successfully withdraw token\"\n            );\n        }\n    }\n\n    function viewBalance(address token, address user)\n        external\n        view\n        returns (uint balance)\n    {\n        return tokens[token][user];\n    }\n\n    // TODO: change this so that the fee can only be decreased\n    // (once a suitable starting fee is reached).\n    function changeBaseFee(uint newFee) external onlyOwner {\n        baseFee = newFee;\n    }\n    function changePaymentFee(uint newFee) external onlyOwner {\n        paymentFee = newFee;\n    }\n\n    function getBaseFee() public view returns (uint feeAmt) {\n        return baseFee;\n    }\n\n    function getPaymentFee() public view returns (uint feeAmt) {\n        return paymentFee;\n    }\n\n    function getPaymentsForSender()\n        external\n        view\n        returns (uint[] memory result)\n    {\n        Dictionary.Data storage payments = senderPayments[msg.sender];\n        uint[] memory keys = payments.keys();\n        return keys;\n\n    }\n\n    function getPaymentsForRecipient()\n        external\n        view\n        returns (uint[] memory result)\n    {\n        Dictionary.Data storage payments = recipientPayments[msg.sender];\n        uint[] memory keys = payments.keys();\n        return keys;\n    }\n\n    function getPaymentInfo(uint paymentID)\n        external\n        view\n        returns (\n        uint holdTime,\n        uint paymentOpenTime,\n        uint paymentCloseTime,\n        address token,\n        uint sendAmount,\n        address sender,\n        address recipient,\n        bytes memory codeHash,\n        uint state\n    )\n    {\n        Payment memory txn = allPayments[paymentID];\n        return (txn.holdTime, txn.paymentOpenTime, txn.paymentCloseTime, txn.token, txn.sendAmount, txn.sender, txn.recipient, txn.codeHash, uint(\n            txn.state\n        ));\n    }\n\n    // TODO: Should the passphrase be needed to cancel the payment?\n    // Cancels the payment and returns the funds to the payment's sender.\n    function cancelPayment(uint txnId) external {\n        // Check txn sender and state.\n        Payment memory txn = allPayments[txnId];\n        require(\n            txn.sender == msg.sender,\n            \"Payment sender does not match message sender.\"\n        );\n        require(\n            txn.state == PaymentState.OPEN,\n            \"Payment must be open to cancel.\"\n        );\n\n        // Update txn state.\n        txn.paymentCloseTime = now;\n        txn.state = PaymentState.CANCELLED;\n\n        delete allPayments[txnId];\n        recipientPayments[txn.recipient].remove(txnId);\n        senderPayments[txn.sender].remove(txnId);\n\n        // Return funds to sender.\n        if (txn.token == address(0)) {\n            tokens[address(0)][txn.sender] = SafeMath.sub(\n                tokens[address(0)][txn.sender],\n                txn.sendAmount\n            );\n            txn.sender.transfer(txn.sendAmount);\n        } else {\n            withdrawToken(txn.token, txn.sender, txn.sender, txn.sendAmount);\n        }\n\n        emit PaymentClosed(\n            txnId,\n            txn.holdTime,\n            txn.paymentOpenTime,\n            txn.paymentCloseTime,\n            txn.token,\n            txn.sendAmount,\n            txn.sender,\n            txn.recipient,\n            txn.codeHash,\n            uint(txn.state)\n        );\n    }\n\n    /**\n* This function handles deposits of ERC-20 tokens to the contract.\n* Does not allow Ether.\n* If token transfer fails, payment is reverted and remaining gas is refunded.\n* Additionally, includes a fee which must be accounted for when approving the amount.\n* Note: Remember to call Token(address).approve(this, amount) or this contract will not be able to do the transfer on your behalf.\n* @param token Ethereum contract address of the token or 0 for Ether\n* @param originalAmount uint of the amount of the token the user wishes to deposit\n* @param feeAmount uint total amount of the fee charged by the contract\n*/\n    // TODO: this doesn't follow checks-effects-interactions\n    // https://solidity.readthedocs.io/en/develop/security-considerations.html?highlight=check%20effects#use-the-checks-effects-interactions-pattern\n    function transferToken(\n        address token,\n        address user,\n        uint originalAmount,\n        uint feeAmount\n    ) internal {\n        require(token != address(0));\n        // TODO: use depositingTokenFlag in the ERC223 fallback function\n        //depositingTokenFlag = true;\n        require(\n            IERC20(token).transferFrom(\n                user,\n                address(this),\n                SafeMath.add(originalAmount, feeAmount)\n            )\n        );\n        //depositingTokenFlag = false;\n        tokens[token][user] = SafeMath.add(\n            tokens[token][msg.sender],\n            originalAmount\n        );\n        tokens[token][owner] = SafeMath.add(tokens[token][owner], feeAmount);\n    }\n\n    // TODO: Make sure to check if amounts are available\n    // We don't increment any balances because the funds are sent\n    // outside of the contract.\n    function withdrawToken(\n        address token,\n        address userFrom,\n        address userTo,\n        uint amount\n    ) internal {\n        require(token != address(0));\n        require(IERC20(token).transfer(userTo, amount));\n        tokens[token][userFrom] = SafeMath.sub(tokens[token][userFrom], amount);\n    }\n\n    /* This takes ether for the fee amount*/\n    // TODO check order of execution.\n    function createPayment(\n        uint amount,\n        address payable recipient,\n        uint holdTime,\n        bytes calldata codeHash\n    ) external payable {\n        return createTokenPayment(\n            address(0),\n            amount,\n            recipient,\n            holdTime,\n            codeHash\n        );\n\n    }\n\n    // Meant to be used for the approve() call, since the\n    // amount in the ERC20 contract implementation will be\n    // overwritten with the amount requested in the next approve().\n    // This returns the amount of the token that the\n    // contract still holds.\n    // TODO: ensure this value will be correct.\n    function getBalance(address token) external view returns (uint amt) {\n        return tokens[token][msg.sender];\n    }\n\n    function getPaymentId(address recipient, bytes memory codeHash)\n        public\n        pure\n        returns (uint result)\n    {\n        bytes memory txnIdBytes = abi.encodePacked(\n            keccak256(abi.encodePacked(codeHash, recipient))\n        );\n        uint txnId = sliceUint(txnIdBytes);\n        return txnId;\n    }\n    // Creates a new payment with the msg.sender as sender.\n    // Expected to take a base fee in ETH.\n    // Also takes a payment fee in either ETH or the token used,\n    // this payment fee is calculated from the original amount.\n    // We assume here that an approve() call has already been made for\n    // the original amount + payment fee.\n    function createTokenPayment(\n        address token,\n        uint amount,\n        address payable recipient,\n        uint holdTime,\n        bytes memory codeHash\n    ) public payable {\n        // Check amount and fee, make sure to truncate fee.\n        uint paymentFeeTotal = uint(\n            SafeMath.mul(paymentFee, amount) / (1 ether)\n        );\n        if (token == address(0)) {\n            require(\n                msg.value >= (SafeMath.add(\n                    SafeMath.add(amount, baseFee),\n                    paymentFeeTotal\n                )),\n                \"Message value is not enough to cover amount and fees\"\n            );\n        } else {\n            require(\n                msg.value >= baseFee,\n                \"Message value is not enough to cover base fee\"\n            );\n            // We don't check for a minimum when taking the paymentFee here. Since we don't\n            // care what the original sent amount was supposed to be, we just take a percentage and\n            // subtract that from the sent amount.\n        }\n\n        // Get payments for sender.\n        Dictionary.Data storage sendertxns = senderPayments[msg.sender];\n        // Get payments for recipient\n        // TODO: make sure recipient is valid address? How much of this check is performed for you\n        Dictionary.Data storage recipienttxns = recipientPayments[recipient];\n\n        // Check payment ID.\n        // TODO: should other components be included in the hash? This isn't secure\n        // if someone uses a bad codeHash. But they could mess up other components anyway,\n        // unless a UUID was generated in the contract, which is expensive.\n        uint txnId = getPaymentId(recipient, codeHash);\n        // If txnId already exists, don't overwrite.\n        require(\n            allPayments[txnId].sender == address(0),\n            \"Payment ID must be unique. Use a different passphrase hash.\"\n        );\n\n        // Add txnId to sender and recipient payment dicts.\n        bytes memory val = \"\\x20\";\n        sendertxns.set(txnId, val);\n        recipienttxns.set(txnId, val);\n\n        // Create payments.\n        Payment memory txn = Payment(\n            holdTime,\n            now,\n            0,\n            token,\n            amount,\n            msg.sender,\n            recipient,\n            codeHash,\n            PaymentState.OPEN\n        );\n\n        allPayments[txnId] = txn;\n\n        // Take fees; mark ether or token balances.\n        if (token == address(0)) {\n            // Mark sender's ether balance with the sent amount\n            tokens[address(0)][msg.sender] = SafeMath.add(\n                tokens[address(0)][msg.sender],\n                amount\n            );\n\n            // Take baseFee and paymentFee (and any ether sent in the message)\n            tokens[address(0)][owner] = SafeMath.add(\n                tokens[address(0)][owner],\n                SafeMath.sub(msg.value, amount)\n            );\n\n        } else {\n            // Take baseFee (and any ether sent in the message)\n            tokens[address(0)][owner] = SafeMath.add(\n                tokens[address(0)][owner],\n                msg.value\n            );\n            // Transfer tokens; mark sender's balance; take paymentFee\n            transferToken(token, msg.sender, amount, paymentFeeTotal);\n        }\n\n        // TODO: is this the best step to emit events?\n        emit PaymentOpened(\n            txnId,\n            txn.holdTime,\n            txn.paymentOpenTime,\n            txn.paymentCloseTime,\n            txn.token,\n            txn.sendAmount,\n            txn.sender,\n            txn.recipient,\n            txn.codeHash\n        );\n\n    }\n\n    // Meant to be called by anyone, on behalf of the recipient.\n    // Will only work if the correct signature is passed in.\n    function retrieveFundsForRecipient(\n        uint256 txnId,\n        address sender,\n        address recipient,\n        string memory passphrase,\n        bytes32 sigR,\n        bytes32 sigS,\n        uint8 sigV\n    ) public {\n        RetrieveFundsRequest memory request = RetrieveFundsRequest(\n            txnId,\n            sender,\n            recipient,\n            passphrase\n        );\n        address signer = ecrecover(\n            hashRetrieveFundsRequest(request),\n            sigV,\n            sigR,\n            sigS\n        );\n\n        require(\n            recipient == signer,\n            \"The message recipient must be the same as the signer of the message\"\n        );\n        Payment memory txn = allPayments[txnId];\n        require(\n            txn.recipient == recipient,\n            \"The payment's recipient must be the same as signer of the message\"\n        );\n        retrieveFunds(txn, txnId, passphrase);\n    }\n\n    // Meant to be called by the recipient.\n    function retrieveFundsAsRecipient(uint txnId, string memory code) public {\n        Payment memory txn = allPayments[txnId];\n\n        // Check recipient\n        require(\n            txn.recipient == msg.sender,\n            \"Message sender must match payment recipient\"\n        );\n        retrieveFunds(txn, txnId, code);\n    }\n\n    // Sends funds to a payment recipient.\n    // Internal ONLY, because it does not do any checks with msg.sender,\n    // and leaves that for calling functions.\n    // TODO: find a more secure way to implement the recipient check.\n    function retrieveFunds(Payment memory txn, uint txnId, string memory code)\n        private\n    {\n        // Check codeHash\n        require(\n            txn.state == PaymentState.OPEN,\n            \"Payment must be open to retrieve funds\"\n        );\n        // TODO: make sure this is secure.\n        bytes memory actualHash = abi.encodePacked(\n            keccak256(abi.encodePacked(code, txn.recipient))\n        );\n        require(\n            sliceUint(actualHash) == sliceUint(txn.codeHash),\n            \"Passphrase is not correct\"\n        );\n\n        // Check holdTime\n        require(\n            (txn.paymentOpenTime + txn.holdTime) > now,\n            \"Hold time has already expired\"\n        );\n\n        // Update state.\n        txn.paymentCloseTime = now;\n        txn.state = PaymentState.COMPLETED;\n\n        delete allPayments[txnId];\n        recipientPayments[txn.recipient].remove(txnId);\n        senderPayments[txn.sender].remove(txnId);\n\n        // Transfer either ether or tokens.\n        if (txn.token == address(0)) {\n            // Pay out retrieved funds based on payment amount\n            // TODO: recipient must be valid!\n            txn.recipient.transfer(txn.sendAmount);\n            tokens[address(0)][txn.sender] = SafeMath.sub(\n                tokens[address(0)][txn.sender],\n                txn.sendAmount\n            );\n\n        } else {\n            withdrawToken(txn.token, txn.sender, txn.recipient, txn.sendAmount);\n        }\n\n        emit PaymentClosed(\n            txnId,\n            txn.holdTime,\n            txn.paymentOpenTime,\n            txn.paymentCloseTime,\n            txn.token,\n            txn.sendAmount,\n            txn.sender,\n            txn.recipient,\n            txn.codeHash,\n            uint(txn.state)\n        );\n\n    }\n\n    // Utility function to go from bytes -> uint\n    // This is apparently not reversible.\n    function sliceUint(bytes memory bs) public pure returns (uint) {\n        uint start = 0;\n        if (bs.length < start + 32) {\n            return 0;\n        }\n        uint x;\n        assembly {\n            x := mload(add(bs, add(0x20, start)))\n        }\n        return x;\n    }\n\n}\n",
  "sourcePath": "/Users/dwarrier/WebstormProjects/eth-refund/contracts/Etherclear.sol",
  "compiler": {
    "name": "solc",
    "version": "0.5.2+commit.1df8f40c.Emscripten.clang"
  },
  "schemaVersion": "3.0.0",
  "updatedAt": "2019-06-01T22:52:24.590Z",
  "devdoc": {
    "methods": {}
  },
  "userdoc": {
    "methods": {}
  }
}