{
  "contractName": "Registry",
  "abi": [
    {
      "inputs": [],
      "payable": false,
      "stateMutability": "nonpayable",
      "type": "constructor"
    },
    {
      "constant": false,
      "inputs": [
        {
          "name": "versionName",
          "type": "string"
        },
        {
          "name": "contractAddress",
          "type": "address"
        }
      ],
      "name": "addVersion",
      "outputs": [],
      "payable": false,
      "stateMutability": "nonpayable",
      "type": "function"
    },
    {
      "constant": true,
      "inputs": [],
      "name": "getNumberOfVersions",
      "outputs": [
        {
          "name": "size",
          "type": "uint256"
        }
      ],
      "payable": false,
      "stateMutability": "view",
      "type": "function"
    },
    {
      "constant": true,
      "inputs": [
        {
          "name": "i",
          "type": "uint256"
        }
      ],
      "name": "getVersion",
      "outputs": [
        {
          "name": "versionName",
          "type": "string"
        },
        {
          "name": "contractAddress",
          "type": "address"
        }
      ],
      "payable": false,
      "stateMutability": "view",
      "type": "function"
    }
  ],
  "bytecode": "0x608060405234801561001057600080fd5b50336000806101000a81548173ffffffffffffffffffffffffffffffffffffffff021916908373ffffffffffffffffffffffffffffffffffffffff1602179055506106c2806100606000396000f3fe608060405234801561001057600080fd5b506004361061005e576000357c0100000000000000000000000000000000000000000000000000000000900480632200919f14610063578063a8320a18146100fc578063b88da7591461011a575b600080fd5b6100fa6004803603604081101561007957600080fd5b810190808035906020019064010000000081111561009657600080fd5b8201836020820111156100a857600080fd5b803590602001918460018302840111640100000000831117156100ca57600080fd5b9091929391929390803573ffffffffffffffffffffffffffffffffffffffff1690602001909291905050506101f4565b005b6101046103af565b6040518082815260200191505060405180910390f35b6101466004803603602081101561013057600080fd5b81019080803590602001909291905050506103bc565b60405180806020018373ffffffffffffffffffffffffffffffffffffffff1673ffffffffffffffffffffffffffffffffffffffff168152602001828103825284818151815260200191508051906020019080838360005b838110156101b857808201518184015260208101905061019d565b50505050905090810190601f1680156101e55780820380516001836020036101000a031916815260200191505b50935050505060405180910390f35b6000809054906101000a900473ffffffffffffffffffffffffffffffffffffffff1673ffffffffffffffffffffffffffffffffffffffff163373ffffffffffffffffffffffffffffffffffffffff1614151561029b576040517f08c379a000000000000000000000000000000000000000000000000000000000815260040180806020018281038252603881526020018061065f6038913960400191505060405180910390fd5b6102a3610589565b604080519081016040528085858080601f016020809104026020016040519081016040528093929190818152602001838380828437600081840152601f19601f8201169050808301925050505050505081526020018373ffffffffffffffffffffffffffffffffffffffff16815250905060018190806001815401808255809150509060018203906000526020600020906002020160009091929091909150600082015181600001908051906020019061035e9291906105b9565b5060208201518160010160006101000a81548173ffffffffffffffffffffffffffffffffffffffff021916908373ffffffffffffffffffffffffffffffffffffffff16021790555050505050505050565b6000600180549050905090565b606060008083101580156103d4575060018054905083105b1515610448576040517f08c379a00000000000000000000000000000000000000000000000000000000081526004018080602001828103825260168152602001807f496e646578206973206f7574206f6620626f756e64730000000000000000000081525060200191505060405180910390fd5b610450610589565b60018481548110151561045f57fe5b9060005260206000209060020201604080519081016040529081600082018054600181600116156101000203166002900480601f0160208091040260200160405190810160405280929190818152602001828054600181600116156101000203166002900480156105115780601f106104e657610100808354040283529160200191610511565b820191906000526020600020905b8154815290600101906020018083116104f457829003601f168201915b505050505081526020016001820160009054906101000a900473ffffffffffffffffffffffffffffffffffffffff1673ffffffffffffffffffffffffffffffffffffffff1673ffffffffffffffffffffffffffffffffffffffff16815250509050806000015181602001518191509250925050915091565b604080519081016040528060608152602001600073ffffffffffffffffffffffffffffffffffffffff1681525090565b828054600181600116156101000203166002900490600052602060002090601f016020900481019282601f106105fa57805160ff1916838001178555610628565b82800160010185558215610628579182015b8281111561062757825182559160200191906001019061060c565b5b5090506106359190610639565b5090565b61065b91905b8082111561065757600081600090555060010161063f565b5090565b9056fe4f6e6c792074686520636f6e7472616374206f776e657220697320616c6c6f77656420746f2075736520746869732066756e6374696f6e2ea165627a7a723058208c41bff4548418d89c20f1b8ed5710ae3d158ec8c2af532c62146d339c7b87060029",
  "source": "pragma solidity ^0.5.2;\n\ncontract Registry {\n    struct ContractVersion {\n        string name;\n        address contractAddress;\n    }\n\n    modifier onlyOwner {\n        require(\n            msg.sender == owner,\n            \"Only the contract owner is allowed to use this function.\"\n        );\n        _;\n    }\n\n    address owner;\n\n    ContractVersion[] versions;\n\n    constructor() public {\n        owner = msg.sender;\n    }\n\n    function addVersion(string calldata versionName, address contractAddress)\n        external\n        onlyOwner\n    {\n        ContractVersion memory newVersion = ContractVersion(\n            versionName,\n            contractAddress\n        );\n        versions.push(newVersion);\n    }\n\n    function getNumberOfVersions() public view returns (uint size) {\n        return versions.length;\n    }\n\n    function getVersion(uint i)\n        public\n        view\n        returns (string memory versionName, address contractAddress)\n    {\n        require(i >= 0 && i < versions.length, \"Index is out of bounds\");\n        ContractVersion memory version = versions[i];\n        return (version.name, version.contractAddress);\n    }\n\n}\n",
  "sourcePath": "/Users/dwarrier/WebstormProjects/eth-refund/contracts/Registry.sol",
  "compiler": {
    "name": "solc",
    "version": "0.5.2+commit.1df8f40c.Emscripten.clang"
  },
  "schemaVersion": "3.0.0",
  "updatedAt": "2019-06-01T22:52:24.549Z",
  "devdoc": {
    "methods": {}
  },
  "userdoc": {
    "methods": {}
  }
}